:100000000C942A000C9434000C9434000C943400AA
:100010000C9434000C9434000C9434000C94340090
:100020000C9434000C9434000C9434000C94340080
:100030000C9434000C9434000C9434000C94340070
:100040000C9434000C9434000C9434000C94340060
:100050000C94340011241FBECFE5D8E0DEBFCDBF25
:100060000E94A6020C9403040C940000CF93C82FA6
:1000700040E060E084E00E940A0240E061E084E049
:100080000E940A026C2F83E00E94800241E062E03D
:1000900084E00E940A0289EF90E00197F1F700C026
:1000A000000040E062E084E00E940A0289EF90E0F4
:1000B0000197F1F700C00000CF9108956FEF83E042
:1000C0000E9493024FEF60E084E00E9494014FEFA2
:1000D00061E084E00E9494014FEF62E084E00E94BE
:1000E00094018FE097E20197F1F700C0000088E3E8
:1000F00090E00E94360089EF90E00197F1F700C090
:1001000000008FE090E00E94360089EF90E00197B8
:10011000F1F700C0000081E090E00E94360083EF1C
:1001200091E00197F1F700C000000895CF93C82F28
:1001300041E060E084E00E940A0240E061E084E087
:100140000E940A026C2F83E00E94800241E062E07C
:1001500084E00E940A0289EF90E00197F1F700C065
:10016000000040E062E084E00E940A0289EF90E033
:100170000197F1F700C00000CF910895AF92BF92B0
:10018000CF92DF92EF92FF921F93CF93DF93AC0158
:10019000892B09F47FC0A12CB12CC12CD12C9A0140
:1001A000ADECBCEC0E94F4039695879596958795E7
:1001B000969587959C01220F331F880F991F880FF2
:1001C000991F880F991F820F931F9A01281B390BC3
:1001D000C901009771F09601220F331FCC0CDD1C72
:1001E000CC0CDD1CCC0CDD1CC20ED31EC80ED91EDF
:1001F00003C03FEFA31AB30A9A01ADECBCEC0E9416
:10020000F403AC01569547955695479556954795F5
:100210004115510521F63BC075019601ADECBCECD2
:100220000E94F403AC01569547955695479556950F
:100230004795CA01880F991F440F551F440F551F3A
:10024000440F551F480F591FC601841B950BAC0165
:100250000E94F4036C01D694C794D694C794D694A4
:10026000C79480E3840F0E949600A114B10459F052
:1002700010E3C0E0D0E0812F0E94960021961F5F1E
:10028000EC16FD06C1F7C114D10439F603C0C11440
:10029000D10411F6DF91CF911F91FF90EF90DF9085
:1002A000CF90BF90AF900895811105C080E8860F70
:1002B0000E9436000895813021F480EC860F0E9460
:1002C000360008953E9A3F983D98379A359A33986C
:1002D00030983198329A089597B1907E97B997B136
:1002E000892B87B9369A349BFECF349A84B195B165
:1002F0000895BC0180E090E00E94F90220E030E027
:1003000040E85AE30E945F0320E030E040EA50E416
:100310000E945F0320E030E048EC52E40E945F035B
:100320000E94CA02CB0108954F3FB9F58230A1F077
:1003300018F4813031F008958330C9F0843011F120
:10034000089581E090E002C0880F991F6A95E2F756
:100350009AB3892B8ABB089581E090E002C0880F90
:10036000991F6A95E2F797B3892B87BB089581E0BF
:1003700090E002C0880F991F6A95E2F794B3892B29
:1003800084BB089581E090E002C0880F991F6A95B0
:10039000E2F791B3892B81BB089541113AC08230B5
:1003A000A9F018F4813031F008958330D9F0843009
:1003B00029F1089581E090E002C0880F991F6A95A5
:1003C000E2F780959AB389238ABB089581E090E093
:1003D00002C0880F991F6A95E2F7809597B3892329
:1003E00087BB089581E090E002C0880F991F6A954D
:1003F000E2F7809594B3892384BB089581E090E06F
:1004000002C0880F991F6A95E2F7809591B38923FE
:1004100081BB08954130B9F58230A1F018F48130E4
:1004200031F008958330C9F0843011F1089581E0EE
:1004300090E002C0880F991F6A95E2F79BB3892B61
:100440008BBB089581E090E002C0880F991F6A95E8
:10045000E2F798B3892B88BB089581E090E002C051
:10046000880F991F6A95E2F795B3892B85BB08958C
:1004700081E090E002C0880F991F6A95E2F792B37D
:10048000892B82BB089541113AC08230A9F018F43B
:10049000813031F008958330D9F0843029F1089506
:1004A00081E090E002C0880F991F6A95E2F780957D
:1004B0009BB389238BBB089581E090E002C0880F35
:1004C000991F6A95E2F7809598B3892388BB0895B0
:1004D00081E090E002C0880F991F6A95E2F780954D
:1004E00095B3892385BB089581E090E002C0880F11
:1004F000991F6A95E2F7809592B3892382BB08958C
:10050000823059F018F4813031F00895833039F099
:10051000843039F008956BBB089568BB089565BBBE
:10052000089562BB0895823059F018F4813031F09B
:100530000895833039F0843039F008956ABB089506
:1005400067BB089564BB089561BB08950E945E0077
:100550000E94620180E00E946C010E947901EC011E
:1005600080E00E9436008FE39FE10197F1F700C021
:10057000000060E080E00E945401CE010E94BE00B5
:100580009FEF29E688E1915020408040E1F700C0CC
:100590000000E0CF0E943E0388F09F5798F0B92FEB
:1005A0009927B751B0F0E1F0660F771F881F991FA8
:1005B0001AF0BA95C9F714C0B13091F00E945803EF
:1005C000B1E008950C945803672F782F8827B85FFF
:1005D00039F0B93FCCF3869577956795B395D9F700
:1005E0003EF490958095709561957F4F8F4F9F4F0A
:1005F0000895E89409C097FB3EF490958095709516
:1006000061957F4F8F4F9F4F9923A9F0F92F96E95E
:10061000BB279395F695879577956795B795F111D3
:10062000F8CFFAF4BB0F11F460FF1BC06F5F7F4F70
:100630008F4F9F4F16C0882311F096E911C0772382
:1006400021F09EE8872F762F05C0662371F096E88B
:10065000862F70E060E02AF09A95660F771F881F5A
:10066000DAF7880F9695879597F9089557FD905872
:10067000440F551F59F05F3F71F04795880F97FB66
:10068000991F61F09F3F79F0879508951216130620
:100690001406551FF2CF4695F1DF08C0161617064F
:1006A0001806991FF1CF8695710561050894089584
:1006B000E894BB2766277727CB0197F908950E9416
:1006C00072030C94E3030E94D50338F00E94DC030C
:1006D00020F0952311F00C94CC030C94D203112438
:1006E0000C9459030E94360370F3959FC1F3950F44
:1006F00050E0551F629FF001729FBB27F00DB11DA6
:10070000639FAA27F00DB11DAA1F649F6627B00D35
:10071000A11D661F829F2227B00DA11D621F739F1E
:10072000B00DA11D621F839FA00D611D221F749F2C
:100730003327A00D611D231F849F600D211D822F73
:10074000762F6A2F11249F5750409AF0F1F088239A
:100750004AF0EE0FFF1FBB1F661F771F881F9150C7
:100760005040A9F79E3F510580F00C94CC030C94A7
:1007700059035F3FE4F3983ED4F3869577956795E8
:10078000B795F795E7959F5FC1F7FE2B880F911DF1
:100790009695879597F9089597F99F6780E870E097
:1007A00060E008959FEF80EC089500240A941616E7
:1007B000170618060906089500240A94121613064F
:1007C000140605060895092E0394000C11F48823DD
:1007D00052F0BB0F40F4BF2B11F460FF04C06F5FF9
:1007E0007F4F8F4F9F4F0895A29FB001B39FC001CD
:1007F000A39F700D811D1124911DB29F700D811D4D
:0A0800001124911D0895F894FFCF14
:00000001FF
